:020000040800F2
:100000000000022025220008E51F0008EB1F000861
:10001000F11F0008F71F0008FD1F00080000000086
:1000200000000000000000000000000003200008A5
:1000300011200008000000001F2000082D200008EB
:100040007522000875220008752200087522000834
:100050007522000875220008752200087522000824
:100060007522000875220008752200087522000814
:100070007522000875220008752200087522000804
:1000800075220008752200087522000875220008F4
:1000900075220008752200087522000875220008E4
:1000A0007522000839200008752200087522000812
:1000B0004D200008752200087522000875220008EE
:1000C00075220008752200087522000875220008B4
:1000D00075220008752200087522000875220008A4
:1000E0007522000875220008752200087522000894
:1000F0007522000875220008752200087522000884
:100100007522000875220008752200087522000873
:100110007522000875220008752200087522000863
:100120006120000875220008752200087522000869
:100130007522000875220008752200087522000843
:100140007522000875220008752200087522000833
:100150007522000875220008752200087522000823
:100160007522000875220008752200087522000813
:1001700075220008752200087522000800000000A2
:08018000752200087522000839
:1001900010B5054C237833B9044B13B10448AFF3C1
:1001A00000800123237010BDE0010020000000004A
:1001B00090A9000808B5034B1BB103490348AFF3EE
:1001C000008008BD00000000E401002090A90008A4
:1001D000034613F8012B002AFBD1181A0138704787
:1001E00001F0FF01102A2BDB10F0070F08D010F8E8
:1001F000013B013A8B422DD010F0070F42B3F6D1EC
:10020000F0B441EA012141EA014122F007047FF004
:1002100000070023F0E80256083C85EA010586EA5B
:10022000010685FA47F5A3FA87F586FA47F6A5FA97
:1002300087F68EB9EED1F0BC01F0FF0102F00702A3
:1002400032B110F8013B013A83EA010313B1F8D14E
:100250000020704701387047002D06BF354603382F
:10026000073815F0010F07D1013015F4807F02BF68
:10027000013015F4C03F0130F0BC0138704700BFB9
:1002800081F0004102E000BF83F0004330B54FEA47
:1002900041044FEA430594EA050F08BF90EA020FB4
:1002A0001FBF54EA000C55EA020C7FEA645C7FEA47
:1002B000655C00F0E2804FEA5454D4EB5555B8BF6A
:1002C0006D420CDD2C4480EA020281EA030382EADB
:1002D000000083EA010180EA020281EA0303362D6D
:1002E00088BF30BD11F0004F4FEA01314FF4801C40
:1002F0004CEA113102D0404261EB410113F0004F52
:100300004FEA03334CEA133302D0524263EB430308
:1003100094EA050F00F0A780A4F10104D5F1200EA6
:100320000DDB02FA0EFC22FA05F2801841F1000101
:1003300003FA0EF2801843FA05F359410EE0A5F1D5
:1003400020050EF1200E012A03FA0EFC28BF4CF006
:10035000020C43FA05F3C01851EBE37101F00045BC
:1003600007D54FF0000EDCF1000C7EEB00006EEBC9
:100370000101B1F5801F1BD3B1F5001F0CD3490853
:100380005FEA30004FEA3C0C04F101044FEA4452AA
:1003900012F5800F80F09A80BCF1004F08BF5FEA31
:1003A000500C50F1000041EB045141EA050130BD11
:1003B0005FEA4C0C404141EB0101013C28BFB1F523
:1003C000801FE9D291F0000F04BF01460020B1FA6E
:1003D00081F308BF2033A3F10B03B3F120020CDA41
:1003E0000C3208DD02F1140CC2F10C0201FA0CF01F
:1003F00021FA02F10CE002F11402D8BFC2F1200C84
:1004000001FA02F120FA0CFCDCBF41EA0C01904039
:10041000E41AA2BF01EB0451294330BD6FEA040482
:100420001F3C1CDA0C340EDC04F11404C4F120026D
:1004300020FA04F001FA02F340EA030021FA04F37F
:1004400045EA030130BDC4F10C04C4F1200220FAD6
:1004500002F001FA04F340EA0300294630BD21FA14
:1004600004F0294630BD94F0000F83F4801306BFDA
:1004700081F480110134013D4EE77FEA645C18BFCE
:100480007FEA655C29D094EA050F08BF90EA020F65
:1004900005D054EA000C04BF1946104630BD91EA5D
:1004A000030F1EBF0021002030BD5FEA545C05D160
:1004B0004000494128BF41F0004130BD14F580049F
:1004C0003CBF01F5801130BD01F0004545F0FE4113
:1004D00041F470014FF0000030BD7FEA645C1ABF48
:1004E000194610467FEA655C1CBF0B46024650EA7F
:1004F000013406BF52EA033591EA030F41F40021AB
:1005000030BD00BF90F0000F04BF0021704730B530
:100510004FF4806404F132044FF000054FF0000105
:1005200050E700BF90F0000F04BF0021704730B5C6
:100530004FF4806404F1320410F0004548BF40429B
:100540004FF000013EE700BF42004FEAE2014FEAF0
:1005500031014FEA02701FBF12F07F4393F07F4FCB
:1005600081F06051704732F07F4208BF704793F0CE
:100570007F4F04BF41F40021704730B54FF46074E1
:1005800001F0004521F000411CE700BF50EA0102E4
:1005900008BF704730B54FF000050AE050EA01028D
:1005A00008BF704730B511F0004502D5404261EBFD
:1005B00041014FF4806404F132045FEA915C3FF43E
:1005C000D8AE4FF003025FEADC0C18BF03325FEADB
:1005D000DC0C18BF033202EBDC02C2F1200300FA8C
:1005E00003FC20FA02F001FA03FE40EA0E0021FAB1
:1005F00002F11444BDE600BF70B54FF0FF0C4CF49F
:10060000E06C1CEA11541DBF1CEA135594EA0C0F50
:1006100095EA0C0F00F0DEF82C4481EA030621EA8B
:100620004C5123EA4C5350EA013518BF52EA0335C6
:1006300041F4801143F4801338D0A0FB02CE4FF078
:100640000005E1FB02E506F00042E0FB03E54FF0A8
:100650000006E1FB03569CF0000F18BF4EF0010EA0
:10066000A4F1FF04B6F5007F64F5407404D25FEA9C
:100670004E0E6D4146EB060642EAC62141EA55514F
:100680004FEAC52040EA5E504FEACE2EB4F1FD0C91
:1006900088BFBCF5E06F1ED8BEF1004F08BF5FEA0F
:1006A000500E50F1000041EB045170BD06F00046C1
:1006B00046EA010140EA020081EA0301B4EB5C046E
:1006C000C2BFD4EB0C0541EA045170BD41F4801166
:1006D0004FF0000E013C00F3AB8014F1360FDEBF8B
:1006E000002001F0004170BDC4F10004203C35DA67
:1006F0000C341BDC04F11404C4F1200500FA05F3EA
:1007000020FA04F001FA05F240EA020001F000428A
:1007100021F0004110EBD37021FA04F642EB060100
:100720005EEA430E08BF20EAD37070BDC4F10C042A
:10073000C4F1200500FA04F320FA05F001FA04F2EE
:1007400040EA020001F0004110EBD37041F10001DA
:100750005EEA430E08BF20EAD37070BDC4F12005E5
:1007600000FA05F24EEA020E20FA04F301FA05F24D
:1007700043EA020321FA04F001F0004121FA04F2F5
:1007800020EA020000EBD3705EEA430E08BF20EAC5
:10079000D37070BD94F0000F0FD101F000464000FF
:1007A00041EB010111F4801F08BF013CF7D041EA81
:1007B000060195F0000F18BF704703F00046520085
:1007C00043EB030313F4801F08BF013DF7D043EA56
:1007D0000603704794EA0C0F0CEA135518BF95EA0C
:1007E0000C0F0CD050EA410618BF52EA4306D1D193
:1007F00081EA030101F000414FF0000070BD50EAB2
:10080000410606BF1046194652EA430619D094EA3B
:100810000C0F02D150EA013613D195EA0C0F05D125
:1008200052EA03361CBF104619460AD181EA030179
:1008300001F0004141F0FE4141F470014FF0000031
:1008400070BD41F0FE4141F4780170BD70B54FF0CC
:10085000FF0C4CF4E06C1CEA11541DBF1CEA13554C
:1008600094EA0C0F95EA0C0F00F0A7F8A4EB05042E
:1008700081EA030E52EA03354FEA013100F0888025
:100880004FEA03334FF0805545EA131343EA1263EE
:100890004FEA022245EA111545EA10654FEA0026A3
:1008A0000EF000419D4208BF964244F1FD0404F55C
:1008B000407402D25B084FEA3202B61A65EB0305B8
:1008C0005B084FEA32024FF480104FF4002CB6EB75
:1008D000020E75EB030E22BFB61A754640EA0C00F5
:1008E0005B084FEA3202B6EB020E75EB030E22BF35
:1008F000B61A754640EA5C005B084FEA3202B6EB76
:10090000020E75EB030E22BFB61A754640EA9C0034
:100910005B084FEA3202B6EB020E75EB030E22BF04
:10092000B61A754640EADC0055EA060E18D04FEAC2
:10093000051545EA16754FEA06164FEAC30343EA62
:1009400052734FEAC2025FEA1C1CC0D111F4801F2F
:100950000BD141EA00014FF000004FF0004CB6E728
:1009600011F4801F04BF01430020B4F1FD0C88BFC7
:10097000BCF5E06F3FF6AFAEB5EB030C04BFB6EBD2
:10098000020C5FEA500C50F1000041EB045170BDC5
:100990000EF0004E4EEA113114EB5C04C2BFD4EBF2
:1009A0000C0541EA045170BD41F480114FF0000E76
:1009B000013C90E645EA060E8DE60CEA135594EAF2
:1009C0000C0F08BF95EA0C0F3FF43BAF94EA0C0FF5
:1009D0000AD150EA01347FF434AF95EA0C0F7FF46A
:1009E00025AF104619462CE795EA0C0F06D152EABE
:1009F00003353FF4FDAE1046194622E750EA4106A2
:100A000018BF52EA43067FF4C5AE50EA41047FF4B2
:100A10000DAF52EA43057FF4EBAE12E74FF0FF3C17
:100A200006E000BF4FF0010C02E000BF4FF0010CE8
:100A30004DF804CD4FEA410C7FEA6C5C4FEA430C61
:100A400018BF7FEA6C5C1BD001B050EA410C0CBFB0
:100A500052EA430C91EA030F02BF90EA020F002012
:100A6000704710F1000F91EA030F58BF994208BF79
:100A700090422CBFD8176FEAE37040F00100704736
:100A80004FEA410C7FEA6C5C02D150EA013C07D18D
:100A90004FEA430C7FEA6C5CD6D152EA033CD3D0D8
:100AA0005DF8040B704700BF8446104662468C46D2
:100AB0001946634600E000BF01B5FFF7B7FF002805
:100AC00048BF10F1000F01BD4DF808EDFFF7F4FF2E
:100AD0000CBF012000205DF808FB00BF4DF808EDB9
:100AE000FFF7EAFF34BF012000205DF808FB00BFDC
:100AF0004DF808EDFFF7E0FF94BF012000205DF8FE
:100B000008FB00BF4DF808EDFFF7CEFF94BF0120B2
:100B100000205DF808FB00BF4DF808EDFFF7C4FFAB
:100B200034BF012000205DF808FB00BF4FEA410CF4
:100B30007FEA6C5C02D150EA013C0AD14FEA430CD7
:100B40007FEA6C5C02D152EA033C02D14FF0000014
:100B500070474FF0010070474FEA410212F5001252
:100B600015D211D56FF47873B3EB625212D94FEAF4
:100B7000C12343F0004343EA505311F0004F23FADE
:100B800002F018BF404270474FF00000704750EA33
:100B9000013005D111F0004008BF6FF000407047F0
:100BA0004FF00000704700BF4A0011D212F500124A
:100BB00011D20DD56FF47873B3EB62520ED44FEAB5
:100BC000C12343F0004343EA505323FA02F0704735
:100BD0004FF00000704750EA013002D14FF0FF3073
:100BE00070474FF0000070474FEA4102B2F1E04316
:100BF00024BFB3F5001CDCF1FE5C0DD901F0004C04
:100C00004FEAC0024CEA5070B2F1004F40EB830053
:100C100008BF20F00100704711F0804F21D113F17F
:100C20003872BCBF01F00040704741F480114FEAB8
:100C30005252C2F11802C2F1200C10FA0CF320FA41
:100C400002F018BF40F001004FEAC1234FEAD3235E
:100C500003FA0CFC40EA0C0023FA02F34FEA4303C8
:100C6000CCE77FEA625307D150EA01331EBF4FF051
:100C7000FE4040F44000704701F0004040F0FE406C
:100C800040F40000704700BF53B94AB9002908BFBB
:100C900000281CBF4FF0FF314FF0FF3000F0AAB921
:100CA000ADF1080C6DE904CE00F03CF8DDF804E08D
:100CB000DDE9022304B0704738B500220023044662
:100CC0000D46FFF70BFF28B920462946BDE83840FE
:100CD00000F00AB8204605F1004100F005F8404256
:100CE00061EB410138BD00BFD0B50C4B0022064678
:100CF0000F46FFF781FCFFF757FF0446FFF702FCA2
:100D0000074B0022FFF778FC02460B463046394677
:100D1000FFF7BAFAFFF748FF2146D0BD0000F03DCB
:100D20000000F0412DE9F047089D04468E46002B57
:100D30004DD18A42944669D9B2FA82F252B101FA8F
:100D400002F3C2F1200120FA01F10CFA02FC41EA9F
:100D5000030E94404FEA1C48210CBEFBF8F61FFA24
:100D60008CF708FB16E341EA034306FB07F19942BF
:100D70000AD91CEB030306F1FF3080F01F81994272
:100D800040F21C81023E63445B1AA4B2B3FBF8F04C
:100D900008FB103344EA034400FB07F7A7420AD9D3
:100DA0001CEB040400F1FF3380F00A81A74240F2FB
:100DB00007816444023840EA0640E41B00261DB166
:100DC000D4400023C5E900433146BDE8F0878B429B
:100DD00009D9002D00F0EF800026C5E9000130465A
:100DE0003146BDE8F087B3FA83F6002E4AD18B4234
:100DF00002D3824200F2F980841A61EB03030120DE
:100E00009E46002DE0D0C5E9004EDDE702B9FFDEC9
:100E1000B2FA82F2002A40F09280A1EB0C014FEA74
:100E20001C471FFA8CFE0126200CB1FBF7F307FBD1
:100E3000131140EA01410EFB03F0884208D91CEB74
:100E4000010103F1FF3802D2884200F2CB80434611
:100E5000091AA4B2B1FBF7F007FB101144EA0144F0
:100E60000EFB00FEA64508D91CEB040400F1FF317F
:100E700002D2A64500F2BB800846A4EB0E0440EA6D
:100E800003409CE7C6F12007B34022FA07FC4CEA76
:100E9000030C20FA07F401FA06F31C43F9404FEA69
:100EA0001C4900FA06F3B1FBF9F8200C1FFA8CFE7E
:100EB00009FB181140EA014108FB0EF0884202FAD2
:100EC00006F20BD91CEB010108F1FF3A80F0888093
:100ED000884240F28580A8F102086144091AA4B250
:100EE000B1FBF9F009FB101144EA014100FB0EFED1
:100EF0008E4508D91CEB010100F1FF346CD28E4500
:100F00006AD90238614440EA0840A0FB0294A1EB90
:100F10000E01A142C846A64656D353D05DB1B3EBED
:100F2000080261EB0E0101FA07F722FA06F3F1401D
:100F30001F43C5E9007100263146BDE8F087C2F1C4
:100F40002003D8400CFA02FC21FA03F3914001433C
:100F50004FEA1C471FFA8CFEB3FBF7F007FB103675
:100F60000B0C43EA064300FB0EF69E4204FA02F421
:100F700008D91CEB030300F1FF382FD29E422DD974
:100F8000023863449B1B89B2B3FBF7F607FB1633A9
:100F900041EA034106FB0EF38B4208D91CEB010129
:100FA00006F1FF3816D28B4214D9023E6144C91AA9
:100FB00046EA004638E72E46284605E70646E3E6B9
:100FC0001846F8E64B45A9D2B9EB020864EB0C0EC3
:100FD0000138A3E74646EAE7204694E74046D1E7D2
:100FE000D0467BE7023B614432E7304609E7644480
:100FF000023842E7704700BF80B582B000AF0346B9
:10100000FB80FB88184601F0A9F900BF0837BD46F0
:1010100080BD80B586B002AF78600B46FB7013468A
:10102000BB70FB7823F00F03FB73FB781B01BB73D2
:101030007B68DB7A002B07D0FB7B43F00803FB7354
:10104000BB7B43F00803BB73BB78012B08D1FB7B50
:1010500043F00103FB73BB7B43F00103BB730AE066
:10106000BB78002B07D1FB7B23F00103FB73BB7B19
:1010700023F00103BB73FB7B43F00403DBB23B7241
:101080000120FFF7B9FFFB7B7B72BB7B43F00403BE
:10109000DBB2BB720120FFF7AFFFBB7BFB727B684B
:1010A00018687B681B7999B207F108024FF47A73CC
:1010B0000093042302F0E6FF00BF1037BD4680BD59
:1010C00080B584B000AFF860B96011461A460B468F
:1010D000FB711346BB71FB68BA681A60FB68FA794A
:1010E0001A71FB68BA795A71FB683A7E9A71FB688B
:1010F00028229A72FB680622DA71FB680C221A72A7
:10110000FB6814225A72FB680822DA723220FFF759
:1011100073FF00223321F868FFF77BFF00223321A1
:10112000F868FFF776FF0520FFF766FF00223221FF
:10113000F868FFF76EFF0520FFF75EFF0022202111
:10114000F868FFF766FF0520FFF756FFFB68DB79BD
:1011500000221946F868FFF75CFFFB681B7A002243
:101160001946F868FFF755FFFB685B7A00221946BD
:10117000F868FFF74EFFFB689B7A00221946F86873
:10118000FFF747FF00220121F868FFF742FF002226
:101190000221F868FFF73DFF00BF1037BD4680BD54
:1011A00080B584B000AF78600B46FB701346BB700F
:1011B0000023FB737B685B79FA789A4203D37B68E0
:1011C0005B79013BFB707B689B79BA789A4203D3C9
:1011D0007B689B79013BBB70BB78002B02D1FB780D
:1011E000FB7313E0BB78012B03D1FB784033FB7317
:1011F0000CE0BB78022B03D1FB781433FB7305E0C2
:10120000BB78032B02D1FB785433FB73FB7B63F079
:101210007F03DBB2002219467868FFF7FAFE00BFB1
:101220001037BD4680BD80B582B000AF78600B46F8
:10123000FB70FB78012219467868FFF7EAFE00BFD1
:101240000837BD4680BD80B582B000AF7860396098
:1012500007E03B685A1C3A601B7819467868FFF72C
:10126000E2FF3B681B78002BF3D100BF00BF0837BB
:10127000BD4680BD80B500AF02F046FA044B1B7836
:101280000221184602F0A2FB02F060FA00BF80BD06
:101290000002002080B483B000AF03463960FB71C8
:1012A000054AFB791370054A3B68136000BF0C3791
:1012B000BD465DF8047B704700020020FC01002061
:1012C0002DE9B04F88B000AFF860B9607A60FB706C
:1012D000374B1B68FA681344FB61FFF7CBFF02F042
:1012E00013FAFB78022B3FD0022B59DC002B02D0E3
:1012F000012B1CD054E00023BB6113E0BA68BB692A
:1013000013441B78DBB200229A46934652465B4652
:10131000F969002002F0A4F9FB690133FB61BB69A4
:101320000133BB61BA697B689A42E7D338E0002396
:101330007B6114E07B695B00BA6813441B889BB235
:1013400000229846914642464B46F969012002F038
:1013500087F9FB690233FB617B6901337B617A6941
:101360007B689A42E6D31BE000233B6113E03B69B4
:101370009B00BA6813441B6800221C46154622468F
:101380002B46F969022002F06BF9FB690433FB611B
:101390003B6901333B613A697B689A42E7D300BFFE
:1013A00002F0D4F900BF2037BD46BDE8B08F00BFC2
:1013B000FC01002080B489B000AFF860B9607A60A9
:1013C000FB70294B1B68FA681344FB61FB78022B06
:1013D0002FD0022B42DC002B02D0012B14D03DE099
:1013E0000023BB610BE0FA69B968BB690B44127852
:1013F0001A70FB690133FB61BB690133BB61BA69D8
:101400007B689A42EFD329E000237B610CE0FA6904
:101410007B695B00B9680B4412881A80FB69023350
:10142000FB617B6901337B617A697B689A42EED309
:1014300014E000233B610CE0FA693B699B00B9684A
:101440000B4412681A60FB690433FB613B6901338A
:101450003B613A697B689A42EED300BF00BF2437F4
:10146000BD465DF8047B7047FC01002000000000D1
:1014700080B582B002AF00F0FFFE00F057F900F037
:101480007BFB00F059FB00F0CFF900F02FFA00F0E1
:101490005BFA00F0AFFA00F0FBFA00F023FB00F07B
:1014A000AFF961490B20FFF7F5FE002304225F49E5
:1014B0000020FFF77FFF5D4B1B685D4A13605D48AE
:1014C00003F0D0FD5C4803F0CDFD0423009314230A
:1014D0004E225A495A48FFF7F3FD022259495A4809
:1014E00000F0A4FF4FF4487000F038FF564801F0B8
:1014F000ADF84FF4487000F031FF524B1B8807EEF7
:10150000903AF8EE677A17EE900AFFF71DF842A3BB
:10151000D3E90023FFF770F802460B461046194640
:101520003FA3D3E90023FFF791F902460B4610468B
:1015300019464FF00002454BFFF75EF802460B4696
:1015400010461946FFF730FB0346DAB2404B1A70DB
:101550003F4B1B781A463F493F4805F029FC394B61
:101560005B8807EE903AF8EE677A17EE900AFEF77E
:10157000EBFF29A3D3E90023FFF73EF802460B4611
:101580001046194626A3D3E90023FFF75FF9024668
:101590000B46104619464FF00002304BFFF72CF86F
:1015A00002460B4610461946FFF71EFB03462C4A1F
:1015B00013601F4B1B681846FEF7C6FF02460B461A
:1015C0002849294805F0F4FB032201211C48FFF7B4
:1015D000E7FD25491A48FFF736FE214B1B681846E0
:1015E000FEF7B2FF02460B462049214805F0E0FB1A
:1015F000002201211248FFF7D3FD17491048FFF7D9
:1016000022FE012201210E48FFF7CAFD18490C48AD
:10161000FFF719FE61E700BF6666666666660A4008
:101620000000000000FEAF4000000E084402002051
:10163000100200205003002098030020FC0200202C
:1016400068040020040200205402002000005940D9
:1016500008020020A8A90008140200200000104081
:101660000C020020B8A9000834020020C8A9000814
:101670002402002080B582B000AF78607B681B68D0
:10168000204A934217D1204B1B681846FEF75CFF97
:101690004FF000021D4BFEF7F9FD02460B461046C7
:1016A0001946FFF7A1FA0346174A13604FF48071F9
:1016B000174802F088FB7B681B68B3F1804F1DD18F
:1016C000114B1B68134A1360134B1B68134A1360BA
:1016D000642304220F49124804F043F964230422CE
:1016E0000E49104804F03DF9074B1B680E4A136081
:1016F000002304220C490020FFF7E2FD00BF083759
:10170000BD4680BD00000140100200200000D03F17
:10171000001002404C0200200C0200205002002069
:10172000E0030020240400204802002080B594B08B
:1017300000AF07F1200330220021184604F0B0FC6E
:1017400007F10C0300221A605A609A60DA601A618D
:101750000023BB60284B1B6C274A43F08053136463
:10176000254B1B6C03F08053BB60BB6800237B6080
:10177000224B1B68214A43F4804313601F4B1B68B4
:1017800003F480437B607B6802233B620123FB629E
:1017900010233B630223BB630023FB6308233B64EA
:1017A000A8237B640223BB640423FB6407F12003AA
:1017B000184602F06FFF0346002B01D000F04AFAF2
:1017C0000F23FB6002233B6100237B614FF4A05396
:1017D000BB614FF48053FB6107F10C0305211846F0
:1017E00003F0D0F90346002B01D000F033FA00BF1C
:1017F0005037BD4680BD00BF003802400070004039
:1018000080B500AF00220121192001F012FB192040
:1018100001F02BFB002202211C2001F00AFB1C20FE
:1018200001F023FB00BF80BD80B584B000AF3B4614
:1018300000221A605A609A60DA60294B294A1A60BD
:10184000274B4FF480325A60254B00229A60244B7C
:1018500001221A61224B01221A76214B002283F8C1
:1018600020201F4B0022DA621D4B1F4A9A621C4B3C
:101870000022DA601A4B0222DA61194B002283F847
:101880003020174B01225A61154800F08BFD0346AA
:10189000002B01D000F0DEF901233B6001237B60C7
:1018A0000523BB603B4619460D4800F047FF034641
:1018B000002B01D000F0CEF902233B6002237B60B5
:1018C0000723BB603B461946054800F037FF034637
:1018D000002B01D000F0BEF900BF1037BD4680BD1F
:1018E00054020020002001400100000F80B500AF2D
:1018F000124B134A1A60114B124A5A600F4B0022C6
:101900009A600E4B0022DA600C4B4FF480421A6151
:101910000A4B00225A61094B00229A61074B0022B0
:10192000DA61064B00221A62044802F067FA0346A5
:10193000002B01D000F08EF900BF80BDFC0200201A
:1019400000540040A086010080B586B000AF07F1CA
:10195000080300221A605A609A60DA603B4600224F
:101960001A605A60214B224A1A60204B00225A60AA
:101970001E4B00229A601D4B40F25932DA601B4B1D
:1019800000221A61194B00225A61184B00229A61F9
:10199000164803F017FB0346002B01D000F05AF95C
:1019A0004FF40053BB600023FB6000233B61002326
:1019B0007B6107F1080319460C4803F0CBFC034692
:1019C000002B01D000F046F900233B6000237B6030
:1019D0003B461946054803F0E7FE0346002B01D0BD
:1019E00000F038F900BF1837BD4680BD5003002015
:1019F0000000014080B586B000AF07F10803002267
:101A00001A605A609A60DA603B4600221A605A6097
:101A10001E4B4FF080421A601C4B4AF210425A6033
:101A20001A4B00229A60194B47F23052DA60174B7A
:101A300000221A61154B00229A61144803F0C2FA81
:101A40000346002B01D000F005F94FF48053BB6032
:101A500007F1080319460D4803F07CFC0346002BF0
:101A600001D000F0F7F800233B6000237B603B4689
:101A70001946064803F098FE0346002B01D000F0FB
:101A8000E9F800BF1837BD4680BD00BF98030020AD
:101A900080B500AF114B124A1A60104B4FF416522A
:101AA0005A600E4B00229A600C4B0022DA600B4BFE
:101AB00000221A61094B0C225A61084B00229A61DC
:101AC000064B0022DA61054803F0FEFE0346002BB8
:101AD00001D000F0BFF800BF80BD00BFE0030020D0
:101AE0000044004080B500AF114B124A1A60104B01
:101AF0004FF416525A600E4B00229A600C4B002293
:101B0000DA600B4B00221A61094B0C225A61084B18
:101B100000229A61064B0022DA61054803F0D4FEE8
:101B20000346002B01D000F095F800BF80BD00BF38
:101B3000240400200048004080B582B000AF00239C
:101B40007B600C4B1B6B0B4A43F480031363094B04
:101B50001B6B03F480037B607B680022002138202C
:101B600001F067F9382001F080F900BF0837BD4661
:101B700080BD00BF0038024080B58AB000AF07F1D9
:101B8000140300221A605A609A60DA601A61002316
:101B90003B612E4B1B6B2D4A43F0800313632B4B91
:101BA0001B6B03F080033B613B690023FB60274B09
:101BB0001B6B264A43F001031363244B1B6B03F09A
:101BC0000103FB60FB680023BB60204B1B6B1F4ABB
:101BD00043F0100313631D4B1B6B03F01003BB603A
:101BE000BB6800237B60194B1B6B184A43F0020350
:101BF0001363164B1B6B03F002037B607B680023AF
:101C00003B60124B1B6B114A43F0080313630F4BED
:101C10001B6B03F008033B603B6800224FF48071AC
:101C20000B4802F0B7F84FF480737B610123BB616E
:101C30000023FB6100233B6207F1140319460448AB
:101C400001F00CFF00BF2837BD4680BD00380240C0
:101C50000010024080B400AF72B600BFFEE7000083
:101C600080B483B000AF00237B60104B5B6C0F4AE5
:101C700043F4804353640D4B5B6C03F480437B60FF
:101C80007B6800233B60094B1B6C084A43F0805380
:101C90001364064B1B6C03F080533B603B6800BF32
:101CA0000C37BD465DF8047B704700BF003802402A
:101CB00080B58AB000AF786007F1140300221A6083
:101CC0005A609A60DA601A617B681B682F4A9342F7
:101CD00057D100233B612E4B5B6C2D4A43F480733C
:101CE00053642B4B5B6C03F480733B613B690023B3
:101CF000FB60274B1B6B264A43F001031363244B05
:101D00001B6B03F00103FB60FB6806237B6103236D
:101D1000BB610023FB6107F1140319461D4801F064
:101D20009DFE1D4B1D4A1A601B4B00225A601A4B28
:101D300000229A60184B0022DA60174B4FF4806241
:101D40001A61154B4FF400625A61134B4FF4005265
:101D50009A61114B4FF48072DA610F4B00221A62C4
:101D60000D4B00225A620C4801F09AF80346002BF2
:101D700001D0FFF76FFF7B68074A9A63064A7B68CA
:101D8000936300BF2837BD4680BD00BF00200140DF
:101D900000380240000002409C0200201064024013
:101DA00080B58AB000AF786007F1140300221A6092
:101DB0005A609A60DA601A617B681B68194A93421C
:101DC0002CD100233B61184B1B6B174A43F00203D5
:101DD0001363154B1B6B03F002033B613B694FF42C
:101DE00040737B611223BB610023FB6103233B62D1
:101DF00004237B6207F1140319460C4801F02EFE00
:101E00000023FB60084B1B6C074A43F40013136468
:101E1000054B1B6C03F40013FB60FB6800BF283705
:101E2000BD4680BD0054004000380240000402401E
:101E300080B58AB000AF786007F1140300221A6001
:101E40005A609A60DA601A617B681B68234A934281
:101E50002CD100233B61224B5B6C214A43F00103F0
:101E600053641F4B5B6C03F001033B613B69002330
:101E7000FB601B4B1B6B1A4A43F010031363184B98
:101E80001B6B03F01003FB60FB6880237B61022364
:101E9000BB610023FB6100233B6201237B6207F1EE
:101EA000140319460F4801F0D9FD12E07B681B6846
:101EB000B3F1804F0DD10023BB60094B1B6C084A66
:101EC00043F001031364064B1B6C03F00103BB607A
:101ED000BB6800BF2837BD4680BD00BF0000014081
:101EE000003802400010024080B58CB000AF78602E
:101EF00007F11C0300221A605A609A60DA601A61C6
:101F00007B681B68324A93422CD10023BB61314B62
:101F10001B6C304A43F4003313642E4B1B6C03F4E8
:101F20000033BB61BB6900237B612A4B1B6B294AD1
:101F300043F008031363274B1B6B03F008037B611B
:101F40007B696023FB6102233B6200237B620323E6
:101F5000BB620723FB6207F11C0319461E4801F010
:101F60007DFD31E07B681B681C4A93422CD1002325
:101F70003B61184B1B6C174A43F480231364154BC9
:101F80001B6C03F480233B613B690023FB60114B16
:101F90001B6B104A43F0020313630E4B1B6B03F0E1
:101FA0000203FB60FB684FF44063FB6102233B626A
:101FB00000237B620323BB620723FB6207F11C0340
:101FC0001946074801F04AFD00BF3037BD4680BDC5
:101FD0000044004000380240000C0240004800402D
:101FE0000004024080B400AFFEE780B400AFFEE71B
:101FF00080B400AFFEE780B400AFFEE780B400AF6E
:10200000FEE780B400AF00BFBD465DF8047B7047BB
:1020100080B400AF00BFBD465DF8047B704780B45C
:1020200000AF00BFBD465DF8047B704780B500AFD0
:1020300000F074F900BF80BD80B500AF024803F026
:1020400081F800BF80BD00BF5003002080B500AF05
:10205000024803F077F800BF80BD00BF980300205E
:1020600080B500AF024801F091F800BF80BD00BF0D
:102070009C02002080B400AF01231846BD465DF8E5
:10208000047B704780B582B000AF7860396003F0A0
:10209000DDFF034616221A604FF0FF33184608375B
:1020A000BD4680BD80B582B000AF78604FF0FF3193
:1020B0007868FFF7E7FFFEE780B586B000AFF8600D
:1020C000B9607A6000237B610AE0AFF300800146CB
:1020D000BB685A1CBA60CAB21A707B6901337B6153
:1020E0007A697B689A42F0DB7B6818461837BD46F0
:1020F00080BD80B586B000AFF860B9607A6000231B
:102100007B6109E0BB685A1CBA601B781846AFF3C4
:1021100000807B6901337B617A697B689A42F1DBDD
:102120007B6818461837BD4680BD80B483B000AFC9
:1021300078604FF0FF3318460C37BD465DF8047BDE
:10214000704780B483B000AF786039603B684FF46B
:1021500000525A60002318460C37BD465DF8047BD8
:10216000704780B483B000AF7860012318460C3705
:10217000BD465DF8047B704780B485B000AFF86061
:10218000B9607A60002318461437BD465DF8047BB9
:102190007047000080B586B000AF7860144A154BD8
:1021A000D31A7B617B693B61134B1B68002B02D107
:1021B000114B124A1A60104B1A687B6813443A6933
:1021C0009A4207D203F042FF03460C221A604FF0F6
:1021D000FF3309E0084B1B68FB60074B1A687B68FC
:1021E0001344054A1360FB6818461837BD4680BD86
:1021F000000002200004000074040020B00400204D
:1022000080B400AF064BD3F88830054A43F470031E
:10221000C2F8883000BFBD465DF8047B704700BF40
:1022200000ED00E0DFF834D00D480E490E4A0023DF
:1022300002E0D458C4500433C4188C42F9D30B4A7A
:102240000B4C002301E013600432A242FBD3FFF7E2
:10225000D7FF03F001FFFFF70BF9704700000220E2
:1022600000000020E0010020ACAE0008E0010020EA
:10227000AC040020FEE7000080B500AF0E4B1B68E9
:102280000D4A43F4007313600B4B1B680A4A43F476
:1022900080631360084B1B68074A43F48073136024
:1022A000032000F0BBFD0F2000F008F8FFF7D8FC7A
:1022B0000023184680BD00BF003C024080B582B0BC
:1022C00000AF7860124B1A68124B1B7819464FF416
:1022D0007A73B3FBF1F3B2FBF3F3184600F0D3FDCE
:1022E0000346002B01D001230EE07B680F2B0AD898
:1022F000002279684FF0FF3000F09BFD064A7B68B2
:102300001360002300E0012318460837BD4680BD56
:1023100000000020080000200400002080B400AF6E
:10232000064B1B781A46064B1B681344044A13607D
:1023300000BFBD465DF8047B704700BF0800002069
:102340007804002080B400AF034B1B681846BD46DC
:102350005DF8047B704700BF7804002080B584B02E
:1023600000AF7860FFF7EEFFB8607B68FB60FB684A
:10237000B3F1FF3F05D00A4B1B781A46FB681344A4
:10238000FB6000BFFFF7DEFF0246BB68D31AFA68A6
:102390009A42F7D800BF00BF1037BD4680BD00BFCE
:1023A0000800002080B584B000AF78600023FB7384
:1023B0007B68002B01D1012333E07B681B6C002B71
:1023C00009D17868FFF774FC7B6800225A647B6847
:1023D000002283F83C207B681B6C03F01003002B69
:1023E00018D17B681B6C23F4885323F0020343F05D
:1023F00002027B681A64786800F0C2FA7B680022E7
:102400005A647B681B6C23F0030343F001027B6872
:102410001A6401E00123FB737B68002283F83C20EF
:10242000FB7B18461037BD4680BD000080B586B0E6
:1024300000AFF860B9607A6000233B61FB6893F8F5
:102440003C30012B01D10223E9E0FB68012283F833
:102450003C20FB681B689B6803F00103012B18D02C
:10246000FB681B689A68FB681B6842F001029A606F
:102470006D4B1B686D4AA2FB03239A0C13465B004D
:1024800013443B6102E03B69013B3B613B69002B2C
:10249000F9D1FB681B689B6803F48073B3F5807FF8
:1024A00007D1FB681B689A68FB681B6822F480727E
:1024B0009A60FB681B689B6803F00103012B40F0E6
:1024C000A180FB681B6C23F4E06323F0010343F459
:1024D0008072FB681A64FB681B685B6803F48063A6
:1024E000002B07D0FB681B6C23F4405343F480524D
:1024F000FB681A64FB681B6C03F48053B3F5805FC0
:1025000006D1FB685B6C23F00602FB685A6402E0AC
:10251000FB6800225A64FB68002283F83C20444B8D
:102520007B61FB689B6B434ADA63FB689B6B424AA7
:102530001A64FB689B6B414ADA64FB681B686FF0A6
:1025400022021A60FB681B685A68FB681B6842F02D
:1025500080625A60FB681B689A68FB681B6842F4DB
:1025600080729A60FB68986BFB681B684C33194655
:10257000BA687B6800F042FD7B695B6803F01F036B
:10258000002B2AD1FB681B682D4A934215D0FB68AB
:102590001B682C4A934205D1254B5B6803F01F034F
:1025A000002B0AD0FB681B68274A934236D1204B88
:1025B0005B6803F01003002B30D1FB681B689B683D
:1025C00003F04053002B29D1FB681B689A68FB6815
:1025D0001B6842F080429A6020E0FB681B68184A42
:1025E00093421BD1FB681B689B6803F04053002B90
:1025F00014D1FB681B689A68FB681B6842F0804234
:102600009A600BE0FB681B6C43F01002FB681A64D5
:10261000FB685B6C43F00102FB685A6400231846B8
:102620001837BD4680BD00BF0000002083DE1B437D
:1026300000230140792B0008332C00084F2C0008A0
:1026400000200140002101400022014080B584B0FB
:1026500000AF78600023FB737B6893F83C30012B5C
:1026600001D1022348E07B68012283F83C207B688B
:102670001B689A687B681B6822F001029A607B687D
:102680001B689B6803F00103002B30D17B681B683B
:102690009A687B681B6822F480729A607B689B6BE7
:1026A00093F83530DBB2022B0FD17B689B6B184659
:1026B00000F0FCFC0346FB73FB7B002B05D07B6822
:1026C0001B6C43F040027B681A647B681B685A6885
:1026D0007B681B6822F080625A607B681B6C23F465
:1026E000885323F0010343F001027B681A647B687E
:1026F000002283F83C20FB7B18461037BD4680BD86
:1027000080B483B000AF786000BF0C37BD465DF881
:10271000047B704780B483B000AF786000BF0C3793
:10272000BD465DF8047B704780B483B000AF78602D
:1027300000BF0C37BD465DF8047B704780B485B0A0
:1027400000AF786039600023BB607B6893F83C3051
:10275000012B01D1022305E17B68012283F83C2093
:102760003B681B68092B25D97B681B68D9683B68C7
:102770001B689BB21A4613465B0013441E3B07229C
:1027800002FA03F3DA437B681B680A40DA607B686D
:102790001B68D9683B689A683B681B689BB21846FF
:1027A00003465B0003441E3B9A407B681B680A4358
:1027B000DA6022E07B681B6819693B681B689BB282
:1027C0001A4613465B001344072202FA03F3DA4366
:1027D0007B681B680A401A617B681B6819693B6843
:1027E0009A683B681B689BB2184603465B0003442B
:1027F0009A407B681B680A431A613B685B68062B3A
:1028000024D87B681B68596B3B685A6813469B0049
:102810001344053B1F2202FA03F3DA437B681B686B
:102820000A405A637B681B68596B3B681B689BB204
:1028300018463B685A6813469B001344053B00FA50
:1028400003F27B681B680A435A634CE03B685B6891
:102850000C2B24D87B681B68196B3B685A6813469D
:102860009B001344233B1F2202FA03F3DA437B68E5
:102870001B680A401A637B681B68196B3B681B68FE
:102880009BB218463B685A6813469B001344233B8F
:1028900000FA03F27B681B680A431A6323E07B6833
:1028A0001B68D96A3B685A6813469B001344413B36
:1028B0001F2202FA03F3DA437B681B680A40DA62DC
:1028C0007B681B68D96A3B681B689BB218463B68EB
:1028D0005A6813469B001344413B00FA03F27B689D
:1028E0001B680A43DA62224BFB607B681B68214A43
:1028F000934209D13B681B68122B05D1FB685B68CA
:1029000043F48002FB685A607B681B68194A934253
:1029100023D13B681B68102B03D03B681B68112B2D
:102920001BD1FB685B6843F40002FB685A603B689C
:102930001B68102B11D1104B1B68104AA2FB0323FC
:102940009A0C13469B0013445B00BB6002E0BB681B
:10295000013BBB60BB68002BF9D17B68002283F888
:102960003C20002318461437BD465DF8047B7047B1
:1029700000230140002001400000002083DE1B43B3
:1029800080B485B000AF7860794BFB60FB685B6812
:1029900023F44032FB685A60FB685A687B685B68C6
:1029A0001A43FB685A607B681B685A687B681B681F
:1029B00022F480725A607B681B6859687B681B69C7
:1029C0001A027B681B680A435A607B681B685A6856
:1029D0007B681B6822F040725A607B681B685968EC
:1029E0007B689A687B681B680A435A607B681B682F
:1029F0009A687B681B6822F400629A607B681B6897
:102A000099687B68DA687B681B680A439A607B6810
:102A10009B6A584A934222D07B681B689A687B68FD
:102A20001B6822F070629A607B681B6899687B68FB
:102A30009A6A7B681B680A439A607B681B689A687D
:102A40007B681B6822F040529A607B681B6899681B
:102A50007B68DA6A7B681B680A439A600FE07B68D0
:102A60001B689A687B681B6822F070629A607B68BA
:102A70001B689A687B681B6822F040529A607B68EA
:102A80001B689A687B681B6822F002029A607B6868
:102A90001B6899687B681B7E5A007B681B680A4329
:102AA0009A607B6893F82030002B1BD07B681B68F2
:102AB0005A687B681B6842F400625A607B681B6836
:102AC0005A687B681B6822F460425A607B681B6806
:102AD00059687B685B6A013B5A037B681B680A4341
:102AE0005A6007E07B681B685A687B681B6822F4A1
:102AF00000625A607B681B68DA6A7B681B6822F494
:102B00007002DA627B681B68D96A7B68DB69013B0B
:102B10001A057B681B680A43DA627B681B689A683F
:102B20007B681B6822F400729A607B681B68996856
:102B30007B6893F830305A027B681B680A439A60BE
:102B40007B681B689A687B681B6822F480629A60C5
:102B50007B681B6899687B685B699A027B681B6865
:102B60000A439A6000BF1437BD465DF8047B704786
:102B7000002301400100000F80B584B000AF7860F1
:102B80007B689B6BFB60FB681B6C03F05003002BA6
:102B90003CD1FB681B6C43F40072FB681A64FB6851
:102BA0001B689B6803F04053002B2BD1FB681B7EF6
:102BB000002B27D1FB681B68DB6A03F47003002B32
:102BC00006D0FB681B689B6803F48063002B19D157
:102BD000FB681B685A68FB681B6822F020025A6079
:102BE000FB681B6C23F48072FB681A64FB681B6C27
:102BF00003F48053002B05D1FB681B6C43F00102EA
:102C0000FB681A64F868FFF77BFD0EE0FB681B6C3D
:102C100003F01003002B03D0F868FFF785FD04E0F4
:102C2000FB689B6BDB6C7868984700BF1037BD462C
:102C300080BD80B584B000AF78607B689B6BFB6023
:102C4000F868FFF767FD00BF1037BD4680BD80B54F
:102C500084B000AF78607B689B6BFB60FB684022B0
:102C60001A64FB685B6C43F00402FB685A64F86802
:102C7000FFF75AFD00BF1037BD4680BD80B485B058
:102C800000AF78607B6803F00703FB600C4BDB68E8
:102C9000BB60BA684FF6FF031340BB60FB681A02C3
:102CA000BB68134343F0BF6343F40033BB60044A83
:102CB000BB68D36000BF1437BD465DF8047B704726
:102CC00000ED00E080B400AF044BDB681B0A03F0AA
:102CD00007031846BD465DF8047B704700ED00E031
:102CE00080B483B000AF0346FB7197F90730002B27
:102CF0000BDBFB7903F01F02074997F907305B09EB
:102D0000012000FA02F241F8232000BF0C37BD4633
:102D10005DF8047B704700BF00E100E080B483B041
:102D200000AF03463960FB7197F90730002B0ADBCF
:102D30003B68DAB20C4997F907301201D2B20B4462
:102D400083F800230AE03B68DAB20849FB7903F014
:102D50000F03043B1201D2B20B441A7600BF0C37AA
:102D6000BD465DF8047B704700E100E000ED00E047
:102D700080B489B000AFF860B9607A60FB6803F096
:102D80000703FB61FB69C3F10703042B28BF04237E
:102D9000BB61FB690433062B02D9FB69033B00E0EE
:102DA00000237B614FF0FF32BB6902FA03F3DA4381
:102DB000BB681A407B699A404FF0FF317B6901FA8A
:102DC00003F3D9437B680B40134318462437BD46B1
:102DD0005DF8047B7047000080B582B000AF78607A
:102DE0007B68013BB3F1807F01D301230FE00A4AE6
:102DF0007B68013B53600F214FF0FF30FFF78EFFE0
:102E0000054B00229A60044B07221A6000231846E3
:102E10000837BD4680BD00BF10E000E080B582B03D
:102E200000AF78607868FFF729FF00BF0837BD461C
:102E300080BD80B586B000AF0346B9607A60FB7391
:102E400000237B61FFF73EFF78617A68B968786993
:102E5000FFF78EFF024697F90F3011461846FFF72D
:102E60005DFF00BF1837BD4680BD80B582B000AFA2
:102E70000346FB7197F907301846FFF731FF00BF93
:102E80000837BD4680BD80B582B000AF78607868F5
:102E9000FFF7A2FF034618460837BD4680BD000075
:102EA00080B586B000AF786000237B61FFF74AFAF7
:102EB00038617B68002B01D1012399E07B680222F5
:102EC00083F835207B68002283F834207B681B68F8
:102ED0001A687B681B6822F001021A600FE0FFF796
:102EE00031FA02463B69D31A052B08D97B682022A8
:102EF0005A657B68032283F83520032378E07B68DA
:102F00001B681B6803F00103002BE8D17B681B687A
:102F10001B687B617A69384B13407B617B685A6818
:102F20007B689B681A437B68DB681A437B681B6974
:102F30001A437B685B691A437B689B691A437B6809
:102F4000DB691A437B681B6A13437A6913437B610D
:102F50007B685B6A042B07D17B68DA6A7B681B6B32
:102F600013437A6913437B617B681B687A691A6033
:102F70007B681B685B697B617B6923F007037B616E
:102F80007B685B6A7A6913437B617B685B6A042BAD
:102F900017D17B689B6A7A6913437B617B68DB6A24
:102FA000002B0ED0786800F0DFFA0346002B08D023
:102FB0007B6840225A657B68012283F83520012313
:102FC00016E07B681B687A695A61786800F096FAA7
:102FD0000346FB607B68DB6D3F229A40FB689A608A
:102FE0007B6800225A657B68012283F83520002324
:102FF00018461837BD4680BD3F8010F080B586B0BA
:1030000000AFF860B9607A603B600023FB75FB6835
:103010009B6D3B61FB6893F83430012B01D1022397
:1030200040E0FB68012283F83420FB6893F83530D8
:10303000DBB2012B2FD1FB68022283F83520FB681D
:1030400000225A653B687A68B968F86800F028FA87
:10305000FB68DB6D3F229A403B699A60FB681B6806
:103060001A68FB681B6842F016021A60FB681B6C4A
:10307000002B07D0FB681B681A68FB681B6842F0CE
:1030800008021A60FB681B681A68FB681B6842F03C
:1030900001021A6005E0FB68002283F83420022355
:1030A000FB75FB7D18461837BD4680BD80B584B0E2
:1030B00000AF78607B689B6DFB60FFF743F9B860F9
:1030C0007B6893F83530DBB2022B08D07B68802216
:1030D0005A657B68002283F83420012352E07B6824
:1030E0001B681A687B681B6822F016021A607B68EE
:1030F0001B685A697B681B6822F080025A617B68F2
:103100001B6C002B03D17B689B6C002B07D07B686A
:103110001B681A687B681B6822F008021A607B68CB
:103120001B681A687B681B6822F001021A6013E0B2
:10313000FFF708F90246BB68D31A052B0CD97B6848
:1031400020225A657B68032283F835207B680022A1
:1031500083F83420032315E07B681B681B6803F0A9
:103160000103002BE4D17B68DB6D3F229A40FB68B2
:103170009A607B68012283F835207B68002283F8FF
:103180003420002318461037BD4680BD80B586B078
:1031900000AF78600023BB608E4B1B688E4AA2FB99
:1031A00003239B0A7B617B689B6D3B613B691B68CA
:1031B000FB607B68DB6D08229A40FB681340002BA4
:1031C0001AD07B681B681B6803F00403002B13D024
:1031D0007B681B681A687B681B6822F004021A600F
:1031E0007B68DB6D08229A403B699A607B685B6D67
:1031F00043F001027B685A657B68DB6D01229A40CF
:10320000FB681340002B12D07B681B685B6903F0DE
:103210008003002B0BD07B68DB6D01229A403B6959
:103220009A607B685B6D43F002027B685A657B683D
:10323000DB6D04229A40FB681340002B12D07B68A0
:103240001B681B6803F00203002B0BD07B68DB6D4F
:1032500004229A403B699A607B685B6D43F00402EC
:103260007B685A657B68DB6D10229A40FB681340CF
:10327000002B43D07B681B681B6803F00803002BFE
:103280003CD07B68DB6D10229A403B699A607B687A
:103290001B681B6803F48023002B18D07B681B6815
:1032A0001B6803F40023002B08D17B681B6C002BE8
:1032B00024D07B681B6C786898471FE07B689B6C08
:1032C000002B1BD07B689B6C7868984716E07B6866
:1032D0001B681B6803F48073002B07D17B681B6895
:1032E0001A687B681B6822F008021A607B681B6CF6
:1032F000002B03D07B681B6C786898477B68DB6D7C
:1033000020229A40FB681340002B00F08F807B68DE
:103310001B681B6803F01003002B00F087807B689C
:10332000DB6D20229A403B699A607B6893F83530C8
:10333000DBB2052B36D17B681B681A687B681B687B
:1033400022F016021A607B681B685A697B681B684A
:1033500022F080025A617B681B6C002B03D17B68D2
:103360009B6C002B07D07B681B681A687B681B6806
:1033700022F008021A607B68DB6D3F229A403B69AD
:103380009A607B68012283F835207B68002283F8ED
:1033900034207B681B6D002B7ED07B681B6D7868AA
:1033A000984779E07B681B681B6803F48023002B37
:1033B0001DD07B681B681B6803F40023002B0DD114
:1033C0007B685B6C002B31D07B685B6C78689847BE
:1033D0002CE000BF00000020B5814E1B7B68DB6B3A
:1033E000002B23D07B68DB6B786898471EE07B68F6
:1033F0001B681B6803F48073002B0FD17B681B686C
:103400001A687B681B6822F010021A607B68012230
:1034100083F835207B68002283F834207B68DB6BDF
:10342000002B03D07B68DB6B786898477B685B6D0B
:10343000002B32D07B685B6D03F00103002B22D0A0
:103440007B68052283F835207B681B681A687B68D7
:103450001B6822F001021A60BB680133BB607A6905
:103460009A4207D37B681B681B6803F00103002B9B
:10347000F2D100E000BF7B68012283F835207B6831
:10348000002283F834207B68DB6C002B05D07B683E
:10349000DB6C7868984700E000BF1837BD4680BDF8
:1034A00080B485B000AFF860B9607A603B60FB68BB
:1034B0001B681A68FB681B6822F480221A60FB688C
:1034C0001B683A685A60FB689B68402B08D1FB6810
:1034D0001B687A689A60FB681B68BA68DA6007E064
:1034E000FB681B68BA689A60FB681B687A68DA60D8
:1034F00000BF1437BD465DF8047B704780B485B0CB
:1035000000AF78607B681B68DBB2103B144AA2FBFB
:1035100003231B09FB60134AFB6813441B781A46FC
:103520007B68DA65FB68032B09D97B681B6823F489
:103530007F7323F003031A1D7B689A6507E07B689D
:103540001B6823F47F7323F003037A6893657B6819
:103550009B6D18461437BD465DF8047B704700BF6D
:10356000ABAAAAAAF0A9000880B485B000AF786021
:103570000023FB737B689B6ABB607B689B69002BA5
:103580001FD1BB68032B56D801A252F823F000BF0D
:10359000A1350008B3350008A1350008373600080A
:1035A0007B68DB6A03F08073002B46D00123FB733A
:1035B00043E07B68DB6AB3F1C07F40D10123FB733A
:1035C0003DE07B689B69B3F5005F21D1BB68032BAD
:1035D00037D801A252F823F0E9350008EF3500088A
:1035E000E9350008013600080123FB7330E07B68F1
:1035F000DB6A03F08073002B25D00123FB7322E0EC
:103600007B68DB6AB3F1C07F1FD10123FB731CE031
:10361000BB68022B03D9BB68032B03D018E001233E
:10362000FB7315E07B68DB6A03F08073002B0ED020
:103630000123FB730BE000BF0AE000BF08E000BFFE
:1036400006E000BF04E000BF02E000BF00E000BFF2
:10365000FB7B18461437BD465DF8047B704700BFFE
:1036600080B586B000AFF860B960C7E900230123D8
:10367000FB75234B1B7E012B01D102233BE0204B2A
:1036800001221A764CF2503000F070F80346FB75B8
:10369000FB7D002B2BD1FB68002B05D13B78194615
:1036A000B86800F01BF916E0FB68012B05D13B88D8
:1036B0001946B86800F0EEF80DE0FB68022B05D162
:1036C0003B681946B86800F0C3F804E0D7E9002366
:1036D000B86800F08BF84CF2503000F047F8034621
:1036E000FB75084B1B69074A23F001031361044B68
:1036F00000221A76FB7D18461837BD4680BD00BFF4
:103700007C040020003C024080B483B000AF002362
:10371000FB710B4B1B69002B0BDA094B094A5A60F2
:10372000074B094A5A60064B1B69002B01DA01233B
:10373000FB71FB7918460C37BD465DF8047B70477A
:10374000003C024023016745AB89EFCD80B400AF58
:10375000054B1B69044A43F00043136100231846DC
:10376000BD465DF8047B7047003C024080B584B0E4
:1037700000AF78600023FB601A4B0022DA61FEF78D
:10378000E1FDF86010E07B68B3F1FF3F0CD07B688F
:10379000002B07D0FEF7D6FD0246FB68D31A7A68E5
:1037A0009A4201D2032319E00F4BDB6803F4803304
:1037B000002BE8D10C4BDB6803F00103002B02D097
:1037C000094B0122DA60084BDB6803F0F203002B9F
:1037D00003D000F0A5F8012300E0002318461037BD
:1037E000BD4680BD7C040020003C024080B485B012
:1037F00000AFF860C7E90023144B1B69134A23F498
:1038000040731361114B1B69104A43F440731361F9
:103810000E4B1B690D4A43F001031361FB683A68C4
:103820001A60BFF36F8F00BFD7E900014FF00002AD
:103830004FF000030A000023F968043113460B60BF
:1038400000BF1437BD465DF8047B7047003C024062
:1038500080B483B000AF786039600D4B1B690C4AAF
:1038600023F4407313610A4B1B69094A43F4007344
:103870001361074B1B69064A43F0010313617B6820
:103880003A681A6000BF0C37BD465DF8047B70478C
:10389000003C024080B483B000AF78600B467B8070
:1038A0000D4B1B690C4A23F4407313610A4B1B69CF
:1038B000094A43F480731361074B1B69064A43F0BE
:1038C000010313617B687A881A8000BF0C37BD46FC
:1038D0005DF8047B704700BF003C024080B483B0B9
:1038E00000AF78600B46FB700C4B1B690B4A23F44E
:1038F00040731361094B094A1B691361074B1B692C
:10390000064A43F0010313617B68FA781A7000BF1E
:103910000C37BD465DF8047B704700BF003C024099
:1039200080B400AF274BDB6803F01003002B08D0F6
:10393000254BDB6943F01003234AD361214B10224E
:10394000DA60204BDB6803F02003002B08D01E4B0D
:10395000DB6943F008031C4AD3611A4B2022DA606A
:10396000184BDB6803F04003002B08D0164BDB69D3
:1039700043F00403144AD361124B4022DA60114B26
:10398000DB6803F08003002B08D00F4BDB6943F0AA
:1039900002030D4AD3610B4B8022DA60094BDB68CE
:1039A00003F00203002B08D0074BDB6943F0200330
:1039B000054AD361034B0222DA6000BFBD465DF8C1
:1039C000047B7047003C02407C04002080B485B03A
:1039D00000AF78600B46FB700023FB60FB78002B88
:1039E00002D10023FB6010E0FB78012B03D14FF4E0
:1039F0008073FB6009E0FB78022B03D14FF4007366
:103A0000FB6002E04FF44073FB60134B1B69124AEA
:103A100023F440731361104B1A690F49FB68134379
:103A20000B610D4B1B690C4A23F0F80313610A4B21
:103A30001A697B68DB001343074A43F002031361F2
:103A4000054B1B69044A43F48033136100BF1437EC
:103A5000BD465DF8047B7047003C024080B489B0ED
:103A600000AF7860396000237B6100233B61002355
:103A7000BB610023FB616BE10122FB6902FA03F3E6
:103A80007B613B681B687A6913403B613A697B69DB
:103A90009A4240F05A813B685B6803F00303012BB4
:103AA00005D03B685B6803F00303022B30D17B68D1
:103AB0009B68BB61FB695B00032202FA03F3DB43F3
:103AC000BA691340BB613B68DA68FB695B0002FAC4
:103AD00003F3BA691343BB617B68BA699A607B6878
:103AE0005B68BB610122FB6902FA03F3DB43BA693D
:103AF0001340BB613B685B681B0903F00102FB6973
:103B000002FA03F3BA691343BB617B68BA695A606E
:103B10003B685B6803F00303032B17D07B68DB680B
:103B2000BB61FB695B00032202FA03F3DB43BA6962
:103B30001340BB613B689A68FB695B0002FA03F3C0
:103B4000BA691343BB617B68BA69DA603B685B683A
:103B500003F00303022B23D1FB69DA087B680832E8
:103B600053F82230BB61FB6903F007039B000F226F
:103B700002FA03F3DB43BA691340BB613B681A697D
:103B8000FB6903F007039B0002FA03F3BA691343CE
:103B9000BB61FB69DA087B680832B96943F8221017
:103BA0007B681B68BB61FB695B00032202FA03F3BD
:103BB000DB43BA691340BB613B685B6803F00302F7
:103BC000FB695B0002FA03F3BA691343BB617B68CC
:103BD000BA691A603B685B6803F44033002B00F05D
:103BE000B4800023FB60604B5B6C5F4A43F480430E
:103BF00053645D4B5B6C03F48043FB60FB685B4A82
:103C0000FB699B08023352F82330BB61FB6903F068
:103C100003039B000F2202FA03F3DB43BA6913404C
:103C2000BB617B68524A93422BD07B68514A9342D6
:103C300025D07B68504A93421FD07B684F4A9342FD
:103C400019D07B684E4A934213D07B684D4A934209
:103C50000DD07B684C4A934207D07B684B4A934215
:103C600001D107230EE008230CE006230AE0052318
:103C700008E0042306E0032304E0022302E001231A
:103C800000E00023FA6902F0030292009340BA694F
:103C90001343BB613549FB699B080233BA6941F89C
:103CA00023203B4B9B68BB613B69DB43BA691340F4
:103CB000BB613B685B6803F48013002B03D0BA69D7
:103CC0003B691343BB61324ABB699360304BDB688D
:103CD000BB613B69DB43BA691340BB613B685B680E
:103CE00003F40013002B03D0BA693B691343BB6193
:103CF000274ABB69D360264B5B68BB613B69DB43EA
:103D0000BA691340BB613B685B6803F40033002B66
:103D100003D0BA693B691343BB611D4ABB69536059
:103D20001B4B1B68BB613B69DB43BA691340BB613A
:103D30003B685B6803F48033002B03D0BA693B69AE
:103D40001343BB61124ABB691360FB690133FB611A
:103D5000FB690F2B7FF690AE00BF00BF2437BD4636
:103D60005DF8047B704700BF003802400038014016
:103D7000000002400004024000080240000C024023
:103D8000001002400014024000180240001C0240D3
:103D9000003C014080B483B000AF78600B467B806C
:103DA00013467B707B78002B03D07A887B689A61FE
:103DB00003E07B881A047B689A6100BF0C37BD461C
:103DC0005DF8047B704780B485B000AF78600B4627
:103DD0007B807B685B69FB607A88FB6813401A0410
:103DE000FB68D9437B880B401A437B689A6100BF0C
:103DF0001437BD465DF8047B7047000080B584B081
:103E000000AF78607B68002B01D101232BE17B6838
:103E100093F83D30DBB2002B06D17B68002283F89B
:103E20003C207868FDF7BCFF7B68242283F83D20A6
:103E30007B681B681A687B681B6822F001021A60A5
:103E40007B681B681A687B681B6842F400421A6032
:103E50007B681B681A687B681B6822F400421A6042
:103E600001F088F8F8607B685B68814A934207D864
:103E7000FB68804A934294BF01230023DBB206E033
:103E8000FB687D4A934294BF01230023DBB2002BE1
:103E900001D00123E7E0FB68784AA2FB03239B0CD7
:103EA000BB607B681B685B6823F03F017B681B6815
:103EB000BA680A435A607B681B681B6A23F03F019B
:103EC0007B685B686A4A934202D8BB68013309E0A9
:103ED000BB684FF4967202FB03F3694AA2FB03230B
:103EE0009B0901337A6812680B4313627B681B6875
:103EF000DB6923F44F4222F0FF027B685B685C4978
:103F00008B4219D8FB68591E7B685B685B00B1FB6C
:103F1000F3F3591C40F6FC730B40002B0AD0FB68EE
:103F2000591E7B685B685B00B1FBF3F30133C3F39D
:103F30000B0351E004234FE07B689B68002B11D1F9
:103F4000FB68581E7B6859680B465B000B44B0FB4E
:103F5000F3F30133C3F30B03002B0CBF0123002346
:103F6000DBB212E0FB68581E7B6859680B469B0069
:103F70000B4499000B44B0FBF3F30133C3F30B0381
:103F8000002B0CBF01230023DBB2002B01D0012347
:103F900022E07B689B68002B0ED1FB68581E7B6873
:103FA00059680B465B000B44B0FBF3F30133C3F3DA
:103FB0000B0343F400430FE0FB68581E7B6859680D
:103FC0000B469B000B4499000B44B0FBF3F3013309
:103FD000C3F30B0343F44043796809681343CB618F
:103FE0007B681B681B6823F0C0017B68DA697B680B
:103FF0001B6A1A437B681B680A431A607B681B684C
:104000009B6823F4034323F0FF037A6811697A68FD
:10401000D26811437A6812680B4393607B681B680F
:10402000DB6823F0FF017B685A697B689B691A4350
:104030007B681B680A43DA607B681B681A687B68C8
:104040001B6842F001021A607B6800221A647B68D8
:10405000202283F83D207B6800221A637B680022BF
:1040600083F83E20002318461037BD4680BD00BFB0
:10407000A08601007F841E00FF083D0083DE1B43F5
:10408000D34D621080B588B002AFF8607A601A46EE
:104090000B467B8113463B81FEF754F97861FB6840
:1040A00093F83D30DBB2202B40F0E0807B69009339
:1040B000192301227049F86800F064F90346002BC7
:1040C00001D00223D3E0FB6893F83C30012B01D1EF
:1040D0000223CCE0FB68012283F83C20FB681B68CC
:1040E0001B6803F00103012B07D0FB681B681A68EB
:1040F000FB681B6842F001021A60FB681B681A68C3
:10410000FB681B6822F400621A60FB68212283F8B6
:104110003D20FB68102283F83E20FB6800221A64D1
:10412000FB687A685A62FB683A895A85FB685B8D3E
:104130009AB2FB681A85FB68504ADA6279897B6912
:104140003A6AF86800F09CF80346002B01D001237E
:104150008DE000233B61FB681B685B693B61FB688A
:104160001B689B693B613B6966E07A69396AF8685C
:1041700000F0DEF90346002B0DD0FB681B6C042B0E
:1041800007D1FB681B681A68FB681B6842F4007261
:104190001A6001236BE0FB685B6A1A78FB681B6896
:1041A0001A61FB685B6A5A1CFB685A62FB685B8D8C
:1041B0009BB2013B9AB2FB685A85FB681B8D013BA1
:1041C0009AB2FB681A85FB681B685B6903F00403FD
:1041D000042B1BD1FB681B8D002B17D0FB685B6A7F
:1041E0001A78FB681B681A61FB685B6A5A1CFB68DB
:1041F0005A62FB685B8D9BB2013B9AB2FB685A85A1
:10420000FB681B8D013B9AB2FB681A857A69396A93
:10421000F86800F0CEF90346002B0DD0FB681B6C4C
:10422000042B07D1FB681B681A68FB681B6842F403
:1042300000721A6001231AE0FB681B8D002B94D1D9
:10424000FB681B681A68FB681B6842F400721A60FE
:10425000FB68202283F83D20FB68002283F83E2083
:10426000FB68002283F83C20002300E0022318466C
:104270001837BD4680BD00BF020010000000FFFFE0
:1042800080B588B002AFF8607A603B600B467B81F6
:10429000FB68DB6A7B617B69082B06D07B69012B9D
:1042A00003D07B6913F5803F08D1FB681B681A684F
:1042B000FB681B6842F480721A600BE0FB681B6BA2
:1042C000122B07D1FB681B681A68FB681B6842F455
:1042D00080721A603B6800937B6800224FF00111E6
:1042E000F86800F04FF80346002B0DD0FB681B6800
:1042F0001B6803F48073B3F5807F03D1FB684FF430
:1043000000721A64032335E0FB681B69B3F5804F24
:1043100008D17B89DBB21A46FB681B6802F0FE02FB
:104320001A611BE07B89DB11DBB203F00603DBB211
:1043300063F00F03DAB2FB681B681A613B687A68A6
:104340000E49F86800F075F80346002B01D00123F0
:1043500010E07B89DAB2FB681B681A613B687A68F7
:104360000749F86800F065F80346002B01D00123E7
:1043700000E0002318461837BD4680BD0800010044
:104380000200010080B584B000AFF860B9603B6006
:104390001346FB7125E03B68B3F1FF3F21D0FDF7E9
:1043A000D1FF0246BB69D31A3A689A4202D33B68EE
:1043B000002B16D1FB6800221A63FB68202283F8C9
:1043C0003D20FB68002283F83E20FB681B6C43F015
:1043D0002002FB681A64FB68002283F83C2001235A
:1043E00023E0BB681B0CDBB2012B0DD1FB681B6803
:1043F0005B69DA43BB6813409BB2002B0CBF0123FF
:104400000023DBB21A460CE0FB681B689B69DA43A9
:10441000BB6813409BB2002B0CBF01230023DBB20F
:104420001A46FB799A42B6D0002318461037BD468B
:1044300080BD80B584B000AFF860B9607A603B6041
:1044400051E0FB681B685B6903F48063B3F5806F20
:1044500023D1FB681B681A68FB681B6842F4007272
:104460001A60FB681B686FF480625A61FB68002267
:104470001A63FB68202283F83D20FB68002283F842
:104480003E20FB681B6C43F00402FB681A64FB6867
:10449000002283F83C20012346E07B68B3F1FF3F14
:1044A00021D0FDF74FFF02463B68D31A7A689A4243
:1044B00002D37B68002B16D1FB6800221A63FB68CD
:1044C000202283F83D20FB68002283F83E20FB6811
:1044D0001B6C43F02002FB681A64FB68002283F81F
:1044E0003C20012320E0BB681B0CDBB2012B0CD16C
:1044F000FB681B685B69DA43BB6813409BB2002B07
:1045000014BF01230023DBB20BE0FB681B689B692F
:10451000DA43BB6813409BB2002B14BF0123002376
:10452000DBB2002B8DD1002318461037BD4680BD6D
:1045300080B584B000AFF860B9607A602DE0F868AB
:1045400000F078F80346002B01D001232DE0BB6872
:10455000B3F1FF3F21D0FDF7F5FE02467B68D31A89
:10456000BA689A4202D3BB68002B16D1FB680022BE
:104570001A63FB68202283F83D20FB68002283F841
:104580003E20FB681B6C43F02002FB681A64FB684A
:10459000002283F83C20012307E0FB681B685B696D
:1045A00003F08003802BCAD1002318461037BD4684
:1045B00080BD80B584B000AFF860B9607A602DE04E
:1045C000F86800F037F80346002B01D001232DE0F6
:1045D000BB68B3F1FF3F21D0FDF7B4FE02467B6814
:1045E000D31ABA689A4202D3BB68002B16D1FB6873
:1045F00000221A63FB68202283F83D20FB6800221A
:1046000083F83E20FB681B6C43F02002FB681A64B1
:10461000FB68002283F83C20012307E0FB681B684D
:104620005B6903F00403042BCAD10023184610373A
:10463000BD4680BD80B483B000AF78607B681B68E6
:104640005B6903F48063B3F5806F1BD17B681B68E3
:104650006FF480625A617B6800221A637B682022B3
:1046600083F83D207B68002283F83E207B681B6C2A
:1046700043F004027B681A647B68002283F83C20C4
:10468000012300E0002318460C37BD465DF8047B8B
:104690007047000080B586B000AF78607B68002B63
:1046A00001D1012367E27B681B6803F00103002B43
:1046B00075D0884B9B6803F00C03042B0CD0854B02
:1046C0009B6803F00C03082B12D1824B5B6803F448
:1046D0008003B3F5800F0BD17E4B1B6803F40033CE
:1046E000002B5BD07B685B68002B57D1012342E233
:1046F0007B685B68B3F5803F06D1764B1B68754AD3
:1047000043F4803313601DE07B685B68B3F5A02F32
:104710000CD1704B1B686F4A43F4802313606D4BC0
:104720001B686C4A43F4803313600BE0694B1B68D1
:10473000684A23F480331360664B1B68654A23F490
:10474000802313607B685B68002B13D0FDF7FAFDB4
:10475000386108E0FDF7F6FD02463B69D31A642B89
:1047600001D9032307E25B4B1B6803F40033002BE2
:10477000F0D014E0FDF7E6FD386108E0FDF7E2FD5A
:1047800002463B69D31A642B01D90323F3E1514B51
:104790001B6803F40033002BF0D100E000BF7B68FE
:1047A0001B6803F00203002B63D04A4B9B6803F0A5
:1047B0000C03002B0BD0474B9B6803F00C03082B1A
:1047C0001CD1444B5B6803F48003002B16D1414B92
:1047D0001B6803F00203002B05D07B68DB68012B0C
:1047E00001D00123C7E13B4B1B6823F0F8027B6833
:1047F0001B69DB00374913430B603AE07B68DB68D9
:10480000002B20D0344B01221A60FDF79BFD38614C
:1048100008E0FDF797FD02463B69D31A022B01D948
:104820000323A8E12B4B1B6803F00203002BF0D0FD
:10483000284B1B6823F0F8027B681B69DB002549C5
:1048400013430B6015E0244B00221A60FDF77AFD3C
:10485000386108E0FDF776FD02463B69D31A022B6A
:1048600001D9032387E11B4B1B6803F00203002BD4
:10487000F0D17B681B6803F00803002B36D07B68FF
:104880005B69002B16D0154B01221A60FDF75AFD0B
:10489000386108E0FDF756FD02463B69D31A022B4A
:1048A00001D9032367E10B4B5B6F03F00203002B7D
:1048B000F0D01BE0094B00221A60FDF743FD386180
:1048C0000EE0FDF73FFD02463B69D31A022B07D9E4
:1048D000032350E10038024000004742800E474267
:1048E000884B5B6F03F00203002BEAD17B681B68E7
:1048F00003F00403002B00F097800023FB75814B2D
:104900001B6C03F08053002B0FD10023BB607D4B49
:104910001B6C7C4A43F0805313647A4B1B6C03F08E
:104920008053BB60BB680123FB75774B1B6803F4A6
:104930008073002B18D1744B1B68734A43F4807347
:104940001360FDF7FFFC386108E0FDF7FBFC024651
:104950003B69D31A022B01D903230CE16A4B1B6874
:1049600003F48073002BF0D07B689B68012B06D189
:10497000644B1B6F634A43F0010313671CE07B68C1
:104980009B68052B0CD15F4B1B6F5E4A43F0040301
:1049900013675C4B1B6F5B4A43F0010313670BE02B
:1049A000584B1B6F574A23F001031367554B1B6F7E
:1049B000544A23F0040313677B689B68002B15D0CF
:1049C000FDF7C0FC38610AE0FDF7BCFC02463B691C
:1049D000D31A41F28832934201D90323CBE0494BE9
:1049E0001B6F03F00203002BEED014E0FDF7AAFCCE
:1049F00038610AE0FDF7A6FC02463B69D31A41F292
:104A00008832934201D90323B5E03E4B1B6F03F07C
:104A10000203002BEED1FB7D012B05D1394B1B6C22
:104A2000384A23F0805313647B689B69002B00F0A5
:104A3000A180344B9B6803F00C03082B5CD07B688F
:104A40009B69022B41D1314B00221A60FDF77AFCA1
:104A5000386108E0FDF776FC02463B69D31A022B69
:104A600001D9032387E0274B1B6803F00073002B59
:104A7000F0D17B68DA697B681B6A1A437B685B6AE2
:104A80009B011A437B689B6A5B08013B1B041A432A
:104A90007B68DB6A1B061B4913434B601B4B0122DF
:104AA0001A60FDF74FFC386108E0FDF74BFC024649
:104AB0003B69D31A022B01D903235CE0114B1B681D
:104AC00003F00073002BF0D054E0104B00221A606A
:104AD000FDF738FC386108E0FDF734FC02463B691D
:104AE000D31A022B01D9032345E0064B1B6803F0C0
:104AF0000073002BF0D13DE07B689B69012B07D14F
:104B0000012338E000380240007000406000474256
:104B10001B4B5B68FB607B689B69012B28D0FB68A3
:104B200003F480027B68DB699A4221D1FB6803F0C1
:104B30003F027B681B6A9A421AD1FA6847F6C07333
:104B400013407A68526A9201934211D1FB6803F4D0
:104B500040327B689B6A5B08013B1B049A4207D189
:104B6000FB6803F070627B68DB6A1B069A4201D027
:104B7000012300E0002318461837BD4680BD00BF62
:104B80000038024080B584B000AF786039607B683F
:104B9000002B01D10123CCE0684B1B6803F0070315
:104BA0003A689A420CD9654B3A68D2B21A70634B94
:104BB0001B6803F007033A689A4201D00123B8E06A
:104BC0007B681B6803F00203002B20D07B681B6806
:104BD00003F00403002B05D0594B9B68584A43F45B
:104BE000E05393607B681B6803F00803002B05D03B
:104BF000534B9B68524A43F460439360504B9B680D
:104C000023F0F0027B689B684D4913438B607B68FF
:104C10001B6803F00103002B44D07B685B68012B09
:104C200007D1474B1B6803F40033002B19D1012334
:104C30007FE07B685B68022B03D07B685B68032B9B
:104C400007D13F4B1B6803F00073002B09D10123F0
:104C50006FE03B4B1B6803F00203002B01D10123E3
:104C600067E0374B9B6823F003027B685B6834493D
:104C700013438B60FDF766FBF8600AE0FDF762FB0B
:104C80000246FB68D31A41F28832934201D90323CA
:104C90004FE02B4B9B6803F00C027B685B689B002A
:104CA0009A42EBD1254B1B6803F007033A689A42FE
:104CB0000CD2224B3A68D2B21A70204B1B6803F018
:104CC00007033A689A4201D0012332E07B681B68EF
:104CD00003F00403002B08D0194B9B6823F4E05227
:104CE0007B68DB68164913438B607B681B6803F0A5
:104CF0000803002B09D0124B9B6823F460427B68A9
:104D00001B69DB000E4913438B6000F021F802465B
:104D10000B4B9B681B0903F00F030A49CB5C22FA7B
:104D200003F3094A1360094B1B681846FDF7C6FADE
:104D3000002318461037BD4680BD00BF003C02402E
:104D400000380240D8A9000800000020040000201C
:104D50002DE9B04F94B000AF00237B640023FB64C7
:104D600000233B640023BB64794B9B6803F00C0376
:104D7000082B0DD0082B00F2E180002B02D0042B71
:104D800003D0DBE0734BBB64DBE0734BBB64D8E068
:104D90006F4B5B6803F03F037B646D4B5B6803F410
:104DA0008003002B63D06A4B5B689B090022BB63C6
:104DB000FA63BB6BC3F308033B6300237B63D7E950
:104DC0000C4522462B464FF000004FF000015901E0
:104DD00041EAD261500102460B462146511A39611F
:104DE000294663EB01037B614FF000024FF00003A3
:104DF000D7E904AB59468B01514643EA91635146CA
:104E00008A015146B2EB0108594663EB01094FF0A4
:104E100000024FF000034FEAC90343EA58734FEA18
:104E2000C80290469946234618EB0303BB602B4605
:104E300049EB0303FB604FF000024FF00003D7E99A
:104E4000024529464B02214643EAD15321464A02F4
:104E5000104619467B6C0022BB62FA62D7E90A232E
:104E6000FBF712FF02460B461346FB6458E0384B33
:104E70005B689B09002218461146C0F308033B6299
:104E800000237B62D7E9088942464B464FF0000079
:104E90004FF00001590141EAD261500102460B4630
:104EA0004146B2EB010A494663EB010B4FF00002A9
:104EB0004FF000034FEA8B1343EA9A634FEA8A12DA
:104EC000B2EB0A0463EB0B054FF000024FF0000356
:104ED000EB0043EA5473E20014461D464346E318D0
:104EE0003B604B4645EB03037B604FF000024FF005
:104EF0000003D7E9004529468B02214643EA915336
:104F000021468A02104619467B6C0022BB61FA6179
:104F1000D7E90623FBF7B8FE02460B461346FB64AF
:104F20000B4B5B681B0C03F0030301335B003B641A
:104F3000FA6C3B6CB2FBF3F3BB6402E0054BBB6461
:104F400000BFBB6C18465037BD46BDE8B08F00BFF0
:104F5000003802400024F40000127A0080B400AF50
:104F6000034B1B681846BD465DF8047B704700BFC5
:104F70000000002080B500AFFFF7F0FF0246054BB0
:104F80009B689B0A03F007030349CB5C22FA03F3F7
:104F9000184680BD00380240E8A9000880B500AF7F
:104FA000FFF7DCFF0246054B9B685B0B03F0070332
:104FB0000349CB5C22FA03F3184680BD0038024057
:104FC000E8A9000880B582B000AF78607B68002B4C
:104FD00001D1012341E07B6893F83D30DBB2002B27
:104FE00006D17B68002283F83C207868FCF720FF1C
:104FF0007B68022283F83D207B681A687B68043353
:105000001946104600F096FA7B68012283F8462084
:105010007B68012283F83E207B68012283F83F20D1
:105020007B68012283F840207B68012283F84120BD
:105030007B68012283F842207B68012283F84320A9
:105040007B68012283F844207B68012283F8452095
:105050007B68012283F83D20002318460837BD46AF
:1050600080BD000080B485B000AF78607B6893F8A5
:105070003D30DBB2012B01D001234EE07B680222E0
:1050800083F83D207B681B68DA687B681B6842F008
:105090000102DA607B681B68234A934222D07B6856
:1050A0001B68B3F1804F1DD07B681B681F4A934279
:1050B00018D07B681B681E4A934213D07B681B681C
:1050C0001C4A93420ED07B681B681B4A934209D04E
:1050D0007B681B68194A934204D07B681B68184A96
:1050E000934211D17B681B689B6803F00703FB6048
:1050F000FB68062B10D07B681B681A687B681B68EE
:1051000042F001021A6007E07B681B681A687B683E
:105110001B6842F001021A60002318461437BD468E
:105120005DF8047B704700BF0000014000040040B0
:1051300000080040000C0040000401400040014015
:105140000018004080B582B000AF78607B681B68B3
:105150001B6903F00203022B22D17B681B68DB680A
:1051600003F00203022B1BD17B681B686FF0020265
:105170001A617B6801221A777B681B689B6903F0C0
:105180000303002B03D0786800F0B5F905E07868D8
:1051900000F0A7F9786800F0B8F97B6800221A7768
:1051A0007B681B681B6903F00403042B22D17B6816
:1051B0001B68DB6803F00403042B1BD17B681B68AE
:1051C0006FF004021A617B6802221A777B681B6801
:1051D0009B6903F44073002B03D0786800F08BF9CF
:1051E00005E0786800F07DF9786800F08EF97B685A
:1051F00000221A777B681B681B6903F00803082BE1
:1052000022D17B681B68DB6803F00803082B1BD1E5
:105210007B681B686FF008021A617B6804221A77AA
:105220007B681B68DB6903F00303002B03D07868FD
:1052300000F061F905E0786800F053F9786800F053
:1052400064F97B6800221A777B681B681B6903F08E
:105250001003102B22D17B681B68DB6803F010035E
:10526000102B1BD17B681B686FF010021A617B68E2
:1052700008221A777B681B68DB6903F44073002BF4
:1052800003D0786800F037F905E0786800F029F974
:10529000786800F03AF97B6800221A777B681B680F
:1052A0001B6903F00103012B0ED17B681B68DB68CF
:1052B00003F00103012B07D17B681B686FF001022B
:1052C0001A617868FCF7D6F97B681B681B6903F0E4
:1052D0008003802B0ED17B681B68DB6803F08003A2
:1052E000802B07D17B681B686FF080021A61786899
:1052F00000F0E0FA7B681B681B6903F04003402B59
:105300000ED17B681B68DB6803F04003402B07D19C
:105310007B681B686FF040021A61786800F0FFF844
:105320007B681B681B6903F02003202B0ED17B6870
:105330001B68DB6803F02003202B07D17B681B6808
:105340006FF020021A61786800F0AAFA00BF0837EF
:10535000BD4680BD80B584B000AF78603960002361
:10536000FB737B6893F83C30012B01D10223B4E03E
:105370007B68012283F83C207B68022283F83D2071
:105380007B681B689B68BB60BB6823F07703BB60CE
:10539000BB6823F47F43BB607B681B68BA689A6074
:1053A0003B681B68B3F5005F3ED0B3F5005F00F2C9
:1053B0008780B3F5805F00F08680B3F5805F7FD88B
:1053C000702B1AD0702B7BD8602B50D0602B77D8E5
:1053D000502B3CD0502B73D8402B58D0402B6FD83B
:1053E000302B64D0302B6BD8202B60D0202B67D88B
:1053F000002B5CD0102B5AD062E07B6818683B68A9
:1054000099683B685A683B68DB6800F0ADF97B68D7
:105410001B689B68BB60BB6843F07703BB607B681D
:105420001B68BA689A604FE07B6818683B689968A7
:105430003B685A683B68DB6800F096F97B681B683C
:105440009A687B681B6842F480429A603CE07B6803
:1054500018683B6859683B68DB681A4600F00AF92F
:105460007B681B685021184600F063F92CE07B68CC
:1054700018683B6859683B68DB681A4600F029F9F0
:105480007B681B686021184600F053F91CE07B68BC
:1054900018683B6859683B68DB681A4600F0EAF810
:1054A0007B681B684021184600F043F90CE07B68DC
:1054B0001A683B681B681946104600F03AF903E089
:1054C0000123FB7300E000BF7B68012283F83D20CD
:1054D0007B68002283F83C20FB7B18461037BD46D2
:1054E00080BD80B483B000AF786000BF0C37BD468C
:1054F0005DF8047B704780B483B000AF786000BF74
:105500000C37BD465DF8047B704780B483B000AFB4
:10551000786000BF0C37BD465DF8047B704780B4EF
:1055200083B000AF786000BF0C37BD465DF8047BE8
:105530007047000080B485B000AF786039607B6848
:105540001B68FB607B68404A934213D07B68B3F1D1
:10555000804F0FD07B683D4A93420BD07B683C4A1A
:10556000934207D07B683B4A934203D07B683A4A18
:10557000934208D1FB6823F07003FB603B685B68D3
:10558000FA681343FB607B682F4A93422BD07B68F9
:10559000B3F1804F27D07B682C4A934223D07B689D
:1055A0002B4A93421FD07B682A4A93421BD07B68C8
:1055B000294A934217D07B68284A934213D07B68CC
:1055C000274A93420FD07B68264A93420BD07B68D0
:1055D000254A934207D07B68244A934203D07B68D4
:1055E000234A934208D1FB6823F44073FB603B6875
:1055F000DB68FA681343FB60FB6823F080023B68BA
:105600005B691343FB607B68FA681A603B689A68C1
:105610007B68DA623B681A687B689A627B680A4A30
:10562000934203D07B680C4A934203D13B681A69CA
:105630007B681A637B6801225A6100BF1437BD463C
:105640005DF8047B704700BF00000140000400408B
:1056500000080040000C00400004014000400140F0
:10566000004401400048014000180040001C004078
:105670000020004080B487B000AFF860B9607A6065
:10568000FB681B6A7B61FB681B6A23F00102FB68F5
:105690001A62FB689B693B613B6923F0F0033B6145
:1056A0007B681B013A6913433B617B6923F00A0362
:1056B0007B617A69BB6813437B61FB683A699A61D5
:1056C000FB687A691A6200BF1C37BD465DF8047B2F
:1056D000704780B487B000AFF860B9607A60FB684B
:1056E0001B6A23F01002FB681A62FB689B697B61EE
:1056F000FB681B6A3B617B6923F470437B617B68B9
:105700001B037A6913437B613B6923F0A0033B6170
:10571000BB681B013A6913433B61FB687A699A6174
:10572000FB683A691A6200BF1C37BD465DF8047B0E
:10573000704780B485B000AF786039607B689B6843
:10574000FB60FB6823F07003FB603A68FB6813435F
:1057500043F00703FB607B68FA689A6000BF143768
:10576000BD465DF8047B704780B487B000AFF86039
:10577000B9607A603B60FB689B687B617B6923F45E
:105780007F437B613B681A027B681A43BB68134303
:105790007A6913437B61FB687A699A6000BF1C37A2
:1057A000BD465DF8047B704780B485B000AF78607B
:1057B00039607B6893F83C30012B01D102235AE019
:1057C0007B68012283F83C207B68022283F83D201D
:1057D0007B681B685B68FB607B681B689B68BB60C1
:1057E000FB6823F07003FB603B681B68FA68134397
:1057F000FB607B681B68FA685A607B681B68214AFB
:10580000934222D07B681B68B3F1804F1DD07B6828
:105810001B681D4A934218D07B681B681B4A934241
:1058200013D07B681B681A4A93420ED07B681B68B2
:10583000184A934209D07B681B68174A934204D0E8
:105840007B681B68154A93420CD1BB6823F0800328
:10585000BB603B685B68BA681343BB607B681B68CE
:10586000BA689A607B68012283F83D207B68002239
:1058700083F83C20002318461437BD465DF8047BAE
:10588000704700BF000001400004004000080040D5
:10589000000C00400004014000400140001800409E
:1058A00080B483B000AF786000BF0C37BD465DF8B0
:1058B000047B704780B483B000AF786000BF0C37C2
:1058C000BD465DF8047B704780B582B000AF78605C
:1058D0007B68002B01D101233FE07B6893F83D30CA
:1058E000DBB2002B06D17B68002283F83C2078686D
:1058F000FCF7FAFA7B68242283F83D207B681B685A
:10590000DA687B681B6822F40052DA60786800F07D
:1059100029F97B681B681A697B681B6822F490422E
:105920001A617B681B685A697B681B6822F02A022F
:105930005A617B681B68DA687B681B6842F4005216
:10594000DA607B6800221A647B68202283F83D209D
:105950007B68202283F83E20002318460837BD4686
:1059600080BD80B58AB002AFF860B9603B60134675
:10597000FB8000237B61FB6893F83D30DBB2202B7A
:105980007CD1BB68002B02D0FB88002B01D1012306
:1059900075E0FB6893F83C30012B01D102236EE0E7
:1059A000FB68012283F83C20FB6800221A64FB6834
:1059B000212283F83D20FCF7C5FC7861FB68FA885A
:1059C0009A84FB68FA88DA84FB689B68B3F5805F89
:1059D00008D1FB681B69002B04D10023FB61BB6865
:1059E000BB6103E0BB68FB610023BB61FB68002275
:1059F00083F83C202AE03B6800937B6900228021E9
:105A0000F86800F040F80346002B01D0032336E08D
:105A1000FB69002B0BD1BB691B881A46FB681B680E
:105A2000C2F308025A60BB690233BB6107E0FB693D
:105A30001A78FB681B685A60FB690133FB61FB68DD
:105A4000DB8C9BB2013B9AB2FB68DA84FB68DB8C8F
:105A50009BB2002BCFD13B6800937B690022402191
:105A6000F86800F010F80346002B01D0032306E08D
:105A7000FB68202283F83D20002300E00223184623
:105A80002037BD4680BD80B590B000AFF860B960EA
:105A90003B601346FB7150E0BB6CB3F1FF3F4CD051
:105AA000BB6C002B07D0FCF74DFC02463B68D31AB9
:105AB000BA6C9A4241D2FB681B680C33BB62BB6A6A
:105AC00053E8003F7B627B6A23F4D073FB63FB687F
:105AD0001B680C33FA6B7A633B63396B7A6B41E872
